:020000040022D8
:1000000070B5174800F030F8164C0025E561E56240
:1000100000F09AFC00F0A0FD10B10120A07001E0FA
:1000200000F00CFD00F019FD01F08CFA00F06BFC03
:10003000A56200F0B8FB0028FBD00A492079491CD2
:1000400058300870074800220121401C01F0A8FA2E
:10005000BDE87040002201231146501E00F022B876
:10006000601D2200E415220085467047004700000D
:10007000401E0028FCDC7047FC4909684968814241
:100080000FD1FB480121C1604FF0E021D1F80021E0
:1000900022F40012C1F80021402101600321816097
:1000A000FEE7704710B500204FF47A51401C88429B
:1000B000FCD303B90022EF48016821F0220101605E
:1000C00042F001031846FFF7D7FFBDE8104018467D
:1000D000FFF7CCBF70B50C4605462EE001F044FAA0
:1000E000A0F13001092901D800010EE0A0F1410181
:1000F000052903D80001A0F55C7006E0A0F16101BC
:1001000005291ED80001A0F5AE60C6B201F02CFA98
:10011000A0F13001092901D80E430BE0A0F1410103
:10012000052901D8373804E0A0F16101052908D874
:100130005738064305F8016B641E002CCED1012010
:1001400070BD002070BD10B500F07DFC38B100F02E
:1001500018FD20B100F086FC08B1012010BD002080
:1001600010BD70B5C44E0024A6F10F050DE0A878AF
:10017000315D00286869204402D000F029FD01E0CB
:1001800000F05FFC002804D0641CA8698442EEDB08
:10019000012070BD30B5002306E0C45CCD5CAC42EC
:1001A00001D0002030BD5B1C9342F6DB012030BD46
:1001B00010B5B14C0F3C62692AB1A269002A12DB6A
:1001C000032A10D002E00022C4E90502AA4B995488
:1001D00061691144814212D1A8491846521CFFF7A7
:1001E000D9FF50B901E0002010BDA449A269C91C83
:1001F000A148521CFFF7CEFF08B1012000E000200B
:100200000028A06903D0401CA061012010BD002877
:1002100001DDFFF7A6FF4FF0FF30A061E3E770B507
:10022000044600F180700E46B0F1807F16D2924DE8
:1002300001200F3DA8712046FFF7BAFF08B1012049
:1002400070BDA87831460028204603D0BDE8704034
:1002500000F0BEBCBDE8704000F0F3BB2170207818
:10026000EDE738B5844C44F620650F3C1CE0258151
:10027000E0784C281DD001216846FFF72BFF0028AD
:1002800016D060799DF8001008446071606AFFF72D
:10029000C6FF00280CD0606A401C60626089401E66
:1002A0006081A06A401CA06260890028DFD1012023
:1002B00038BD01F059F98DF80000E2E700B589B0CA
:1002C0000E238DF8003008238DF8013001238DF8BE
:1002D0000230CC238DF80330FC238DF804300A461D
:1002E000002300F180718DF80530B1F1807F14D2C8
:1002F00061480F3883780DF1060013B100F0A5FCBA
:1003000001E000F0A6FB002805D001220A21684682
:1003100001F046F9012009B000BD0020FBE710B54F
:1003200000F0A0FB002813D0FFF71BFF00280FD020
:1003300000F089FB20B100F024FC08B1012400E0AA
:1003400000244D490F39897809B100F08EFC204610
:1003500010BD70B5FFF7E3FF002808D001F004F9E5
:10036000FC2803D101F000F9082801D0002070BD5D
:1003700001F0FAF8044601F0F7F844EA002401F02D
:10038000F3F844EA004401F0EFF844EA006401F0B5
:10039000EBF8054601F0E8F845EA002501F0E4F83D
:1003A00045EA004501F0E0F845EA00612046FFF724
:1003B00085FFC0B270BD10B501F0D6F8FF2803D19B
:1003C00001F0D2F8012801D0002010BD2A480F38D2
:1003D000807820B101F0C8F800F0D1FB03E001F013
:1003E000C3F800F02CFB0028EFD0012010BD00F175
:1003F0008070B0F1807F0AD21F4A00230F3A536108
:100400005B1E936192780AB100F04ABB09B10020EB
:1004100070474FF4004000F01EBB10B501F0A4F887
:10042000FF2803D101F0A0F8042801D0002010BD5E
:1004300001F09AF8104C0F3C606201F095F8616A87
:1004400041EA0020606201F08FF8616A41EA0040F1
:10045000606201F089F8616A41EA0060012160622E
:10046000FFF7C5FF0028E2D0012010BD08ED00E035
:100470000090320020043600F3152200DC15220023
:1004800010B501F071F8FA4CFF2803D0207948B973
:10049000012006E001F068F8042805D0207908B9A9
:1004A000022020710020E0E701F05EF8606201F0B8
:1004B0005BF8616A41EA0020606201F055F8616A08
:1004C00041EA0040606201F04FF8616A41EA006071
:1004D000E8496062884203D14FF4A000606204E002
:1004E0000021FFF784FF0028BFD00120BDE710B531
:1004F000FFF715FF0028B8D001F036F8FC2805D129
:1005000001F032F8DA4C0428608101D00020ACE719
:1005100001F02AF8606201F027F8616A41EA0020E0
:10052000606201F021F8616A41EA0040606201F016
:100530001BF8616A012241EA0060CD4960623031F6
:10054000E078C870CA480621303001F029F8002050
:1005500060624268014662620123E069FFF7A2FD22
:10056000012082E730B50C46C1B00E218DF8001095
:10057000FB2C02D9002041B030BD211D8DF80110A7
:1005800001218DF802104D218DF80310FC218DF80A
:10059000041000218DF8051000F180716B46B1F157
:1005A000807F0ED2B24822468078002803F10600F0
:1005B00002D000F038FB01E000F049FA0028DAD060
:1005C00008E0002104E05D1810F8012BAA71491C15
:1005D000A142F8D30122A11D684600F0E1FF0120ED
:1005E000C9E710B5FFF79BFE002808D000F0BCFF5C
:1005F000FC2803D100F0B8FF052801D0002034E723
:1006000000F0B2FF9A4C606200F0AEFF616A41EA0E
:100610000020606200F0A8FF616A41EA0040606269
:1006200000F0A2FF616A41EA0060606200F09CFF96
:100630000146606ABDE8104094E710B500F094FFF1
:10064000FC2805D100F090FF894C0428608101D27C
:1006500000200AE700F088FF606200F085FF616A11
:1006600041EA0020606200F07FFF616A41EA0040D9
:10067000606200F079FF616A41EA0060606260894F
:10068000001F60810120F0E670B579480421203018
:10069000FFF720FD00286BD0754C754D2034217874
:1006A0006078A3780A18E07803441A446A71698173
:1006B000B4F80120002852BA6A626ED000260228DF
:1006C00006D0042817D0052828D0012843D04EE0B2
:1006D000F2BB02294BD166482030FFF7FBFC002813
:1006E00046D0207861786B7942181A4400036A7109
:1006F00040EA011010E05ABB022938D15C48203092
:10070000FFF7E8FC28B92078617808446979084443
:100710006871208840BA0004E86218E0C2B9042970
:1007200025D153482030FFF7D5FC002820D0207871
:100730006178A2780144E078024411446A79114456
:100740006971216809BA21F0FF010143E96200E003
:100750000DE06E8121E00A4309D145480121203096
:10076000FFF7B8FC002803D02078FF2801D0002034
:1007700070BDFFF7D4FD0028FAD03D492E20491C5A
:10078000002208703A480121401C00F009FF0022B5
:1007900001231146501EFFF785FCE96A686A084488
:1007A0006862012070BD38B5314C207840F00100FE
:1007B000207000F0ECFEE070217801F080012170E3
:1007C000002161810D2842D00A2840D03A2811D05A
:1007D0004C2814D04D2817D04E281AD0CE281DD022
:1007E0005E2820D0E52823D0CC2826D057282CD02E
:1007F0000F2038BDFFF748FF10BB042038BDFFF7BE
:100800001CFFE8B9052038BDFFF7EBFEC0B9062094
:1008100038BDFFF76CFE98B9072038BDFFF730FEF2
:1008200070B9082038BDFFF7F8FD48B9092038BD78
:10083000FFF7C1FD20B90A2038BDFFF78AFD10B1CE
:10084000E06928B108E00C2038BD8020207058E015
:10085000608908B1606AE061FFF703FD60B1FFF7EE
:1008600072FC58B1E0783A280AD0402808D017E046
:10087000E4152200EFEEBEFC102038BD112038BD7B
:1008800001216846FFF726FC40B160799DF8001011
:10089000084410F0FF0F03D0132038BD122038BDDC
:1008A000E0785D49572814D03A2811D001F12F047F
:1008B0004C2813D0CE2819D05E2817D0E52815D0A3
:1008C0004D281ED0CC281CD0ED281AD0152038BDBC
:1008D0002E200870002201214F4804E0E0704E48AD
:1008E000012206212F3000F05BFE0AE0E070FF20BD
:1008F00020714948012206212F3000F051FEFC20D2
:100900002071002038BD30B5444B454C00210846CD
:100910000022C50702D083EA500000E04008521CC4
:10092000082AF6D344F82100491CFF29EFD930BD2D
:100930003C4900200860091D0860091D08603A490B
:1009400008648864C8647047334810B4401E0021AE
:1009500001710123037044F62062028100F10C0250
:1009600040241470302454703124947024320E24A6
:100970001470042454709370FC23137151712B4A2A
:100980008170817111704161491E816110BCCFE796
:10099000B0F5801F05D36FF40011254A0144914240
:1009A00006D228B1411C03D0C00701D001207047F6
:1009B00000207047204910B51E4808601649491E9E
:1009C000087818B144F6206008814EE50889401E79
:1009D0000004000C0881F8D10F495A200022087049
:1009E00001210D4800F0DCFD00220123BDE810408C
:1009F0001146501EFFF756BB70B5054600244FF454
:100A0000FA6606E00021491CB142FCD3FFF7D2FF91
:100A1000641CAC42F6D370BDE51522002083B8ED0E
:100A200040162200440E6500004065001A162200A0
:100A3000FE0F05000024F4000090320070470120F2
:100A40007047012070470120704701207047012046
:100A500070470120704701207047704700207047A1
:100A60000020704701207047002070470020704729
:100A7000814A00215054491C4029FBD3704710B5CE
:100A8000030BDA0803F0070301249C40E3B27A4C1D
:100A9000C00B205C09B1184300E09843A05410BD7E
:100AA00070B5764A0546764C107818B12078F8B9BA
:100AB00005200FE05068826871B14FF480512846DC
:100AC000904720B101212846FFF7D9FF0CE020789C
:100AD00070B9062020700BE06FF0704128469047F7
:100AE00020B1FF20FFF7C4FF012070BD207808B1BE
:100AF000002070BD0720EDE72DE9F0470C460746C2
:100B0000DFF8749123E03E0BF50806F007000121A1
:100B1000814001F0FF0819F8051011EA080F0BD108
:100B200001213846FFF7BCFF002813D019F8051043
:100B300041EA080109F8051040F6FF7000EB0630A5
:100B4000C11B4A1CA24204D2641A471C641E002C1A
:100B5000D9D10120BDE8F08710B5484C00202070A5
:100B60006080FFF785FF012000F023F920B100F03D
:100B70003AF910F0FF0001D10120207010BD0120D2
:100B8000704770B53D4D287808B1002070BD698868
:100B9000C1B1AC68204604F18074B4F1807F00D309
:100BA00004462046FFF7A8FF0028EFD06868324AC5
:100BB00069880368403A204698476988884203D18B
:100BC000012002E0012070BD00200021698070BD7D
:100BD0002DE9F041294C07460E46207810B100203F
:100BE000BDE8F0816088002540B1A1680844B842A2
:100BF00005D0FFF7C6FF0028F2D06580A7601E4928
:100C0000608840390E54401C80B2608021890144C4
:100C1000090501D0402804D1FFF7B3FF0028DFD039
:100C200065800120DCE770B51446024613480D4686
:100C3000017841B940682146436828469847A04258
:100C400001D1012070BD002070BD70B51446024670
:100C50000A480D46017809B1002070BD4068214660
:100C6000036928469847C0B270BD044810B5406873
:100C7000C0688047012010BDA41D2200301622004C
:100C8000E81522002DE9F047054608A8F94C90E840
:100C9000000716460F4613B1204600F0F7FA002071
:100CA00004E015F8011BC4F80411401CB042F8D34D
:100CB000B8F1000F12D0204600F0EDFA204600F007
:100CC000D5FA606980B2606149EA0A40A0633804DD
:100CD00060632046BDE8F04700F0CCBABDE8F0877D
:100CE0002DE9F047E34CDDE9089A06461F46154614
:100CF0008846204600F0CAFA002004E016F8011BDE
:100D0000C4F80411401C4045F8D3204600F0CDFA49
:100D1000204600F0ABFA3804606149EA0A40A0635B
:100D20004FEA08406063204600F0A4FA002004E087
:100D3000D4F8001105F8011B401CB842F8D3CDE7E8
:100D400070B506464FF4481005250068C00400D56C
:100D50000A25002403E02846FFF78AF9641CB44200
:100D6000F9D370BD70B5C34800242646016821F44C
:100D7000E06141F4C0610160BF48016841F00301D6
:100D800001604FF4CA052C64D5F8740240F00100EC
:100D9000C5F87402D5F8CC01800501D5012606E01E
:100DA0003220FFF7CDFF641CA4B2642CF2D330468E
:100DB00070BD70B50546B14CFFF7D4FF002811D0C7
:100DC0001DB14FF454110820C862AC49A948491C10
:100DD0000160A84A002128321160A64A3032116011
:100DE0000460012070BD30B5A5A089B000680390F3
:100DF000A4A0012500680490A3A000240068059029
:100E0000A2A02B4600680690A1A02A460068079081
:100E10000095CDE90154294603A8FFF733FF00955B
:100E20000123CDE901541A46194604A8FFF72AFF09
:100E30004FF49B70FFF784FF00950123CDE9015427
:100E40001A46194605A8FFF71DFF00940323914A8F
:100E5000012106A80194FFF743FF8E4A0094012365
:100E6000521E042107A80194FFF73AFF8948007831
:100E7000C22802D0002009B030BD0120FBE72DE9D7
:100E8000FE43044684A01646006802908DF80B408D
:100E9000200A8DF80A00200C89460D468DF80900BD
:100EA0004FF00008032712E0CDE90087F82332460F
:100EB000042102A8FFF714FFF8348DF80B40200A34
:100EC0008DF80A00200CF83D8DF80900F836F82D51
:100ED000EAD23DB1CDE900872B463246042102A873
:100EE000FFF7FEFE4846BDE8FE832DE9F8430E46B7
:100EF00069A1604C096800918DF80300010A8DF822
:100F00000210000C8DF8010017469146DFF88C8125
:100F1000204600F0BBF900256846415DC4F8041185
:100F20006D1C042DF9D3380460614FF44030A06388
:100F30004FF480206063206840F4C0302060206857
:100F400020F480302060204600F0AFF9204600F009
:100F50008DF900E000BFA06940B928466D1C6428E7
:100F6000F8D303E0D8F8000006F8010B7F1EF9D291
:100F7000206840F480302060206820F40040206029
:100F80004846BDE8F8831FB545A0012300680390DB
:100F9000002002900090019002AA194603A8FFF7D2
:100FA0009FFE9DF8080004B010BD1FB53DA00121B3
:100FB000006803900020CDE9001002900B460A461D
:100FC00003A8FFF75FFE1FBD10B501E0FFF7EDFFBF
:100FD000FFF7D9FF8007F9D510BD10B5FFF7D3FF94
:100FE000C007FBD110BD0EB528A1024609680291C9
:100FF0000021009101910323012102A8FFF770FE57
:101000000EBD1FB528A000680390FFF7E6FFFFF7AD
:10101000DBFF01210020CDE9001002900B460A46BB
:1010200003A8FFF72FFEFFF7D8FF1FBD01B584B05F
:101030009DF810008DF80F009DF811008DF80E003E
:101040009DF812008DF80D0020208DF80C00FFF7A0
:10105000C4FFFFF7B9FF00200121CDE900100B46C6
:1010600004220290114603A8FFF70CFEFFF7B5FF1C
:1010700005B000BD002435009C086400205E3400EB
:10108000660000009900000035000000AF0000007D
:10109000AB0000003D162200EB00000000253500EB
:1010A00005000000060000006000000070B50E465C
:1010B0000546FFF798FE00281BD06FF0704086426F
:1010C00002D1FFF79EFF13E096B14FF47A70B6FBA2
:1010D000F0F4300500D0641C4FF0807644B128460F
:1010E000FFF7A4FF05F58055B54201D2641EF5E770
:1010F000012070BD03B585B09DF814008DF80F0078
:101100009DF815008DF80E009DF816008DF80D0065
:1011100002208DF810108DF80C00FFF75EFFFFF72E
:1011200053FF00200121CDE900100B46052202905B
:10113000114603A8FFF7A6FDFFF74FFF07B098E79A
:1011400001B584B09DF810008DF80B009DF81100DA
:101150008DF80A009DF812008DF80900EB208DF83B
:101160000800FFF73AFF03210020CDE90001012329
:1011700003AA042102A8FFF7B3FD9DF80C0077E74E
:101180002DE9F04116460F460546002405E02846A5
:1011900016F8011B6D1CFFF7ADFF2046641CB8421A
:1011A000F5D33846BDE8F0812DE9F04115460E46ED
:1011B0000A46074600242946FFF7E2FF08E03819EF
:1011C000FFF7BEFF315D814201D00020EAE7641CD9
:1011D000AC42F4D30120E5E72DE9F043BFB0164659
:1011E0000D4607464FF0FF34DFF87C90E84615E0E7
:1011F0006A46F8213846FFF742FEF82818D1002049
:1012000041464B460A5C401C6240D2B2F82853F873
:10121000222082EA1424F5D3F83DF837F82DE7D8D8
:10122000C5B16A4629463846FFF729FEA84203D0D1
:1012300000203FB0BDE8F083002041464B4607E068
:101240000A5C6240D2B2401C53F8222082EA142485
:10125000A842F5D3E0433070010A7170010CB170FF
:10126000000EF0700120E4E7401622004FF4002148
:1012700041627047416A0903FCD570474FF4002270
:1012800042624160416A0903FCD57047016821F45C
:10129000F04101607047016841F4006101607047EE
:1012A000016841F4405101607047016841F46051A8
:1012B00001607047016841F4B0410160704700224D
:1012C00002E0D1F80031521C8242FAD3704740F05C
:1012D00001020A6000228A62954A914204D14FF4C9
:1012E00048134022C3F8002108604FF0FF304862E5
:1012F000704770B50C460025049910F0FF0002D02D
:10130000012802D002E08A4D00E08A4D4FF44810D7
:1013100050F8946F46F001060660500140EA8310D1
:1013200040EA4100844908432946FFF7D0FF83483B
:10133000844201D1012010E0814988018C4201D210
:101340000C4602E0844200D90446B0FBF4F0401E93
:1013500000F03F00410041EAC010286370BD70B446
:101360000C460146DDE90365002011F0FF0102D0C3
:10137000012902D002E06E4800E06E48002B16D032
:101380001EB1016821F4F0410160002104E014F86D
:10139000016BC0F80461491C9942F8D3002D06D0B6
:1013A000016841F40061016070BC114666E770BCE1
:1013B000704730B5002315460C4610F0FF0002D0F0
:1013C000012802D002E05A4B00E05A4B002D14D005
:1013D000186820F4F0401860186840F44050186015
:1013E00029461846FFF74AFF002004E0D3F8001111
:1013F00004F8011B401CA842F8D330BD70B51D464F
:101400000024049E134610F0FF0002D0012802D0F1
:1014100002E0474C00E0474C002B23D0002E21D0A7
:10142000206820F4F0402060002004E011F8012B37
:10143000C4F80421401C9842F8D3206840F460505E
:10144000206099192046FFF719FF21461846FFF73B
:1014500036FF002004E0D4F8001105F8011B401C01
:10146000B042F8D370BD30B5144605001DD01868E1
:1014700020F4F0401860002004E011F8012BC3F8BC
:101480000421401CA842F8D3186840F4B04018600A
:1014900029461846FFF7F2FE002004E0D3F80011B9
:1014A00004F8011B401CA842F8D330BD016841F488
:1014B000006101607047016821F4006101607047BC
:1014C000016841F4805101607047016821F4805146
:1014D00001607047400140EA811040F490101946C5
:1014E000F5E610B5002304E011F8014BC2F8044101
:1014F0005B1C8342F8D310BD8068C0F30A007047BC
:1015000010B59369C3F30A03834201D2022010BDD0
:10151000002304E0D2F8004101F8014B5B1C834238
:10152000F8D3002010BD8069C0F30A0070470000A6
:1015300000063600002435000002330000366E013C
:101540006CDC02002448016841F040010160016840
:1015500041F020010160016841F0020101601E4973
:10156000002010310860704770B51B4901200C3114
:10157000086008254FF45814FFF71CFAC4F884508B
:10158000D4F884000007F7D4E069C0B270BD10B58C
:10159000FFF7EAFF012802D1BDE81040E4E710BDE3
:1015A00030B502244FF45813C3F88440D3F8845064
:1015B000AD07F9D52AB10425DD6102E010F8012B51
:1015C000DA61491E89B2F9D2C3F88440D3F88400A5
:1015D0008007F9D530BD0000200436000108000165
:1015E00006000000000000000000000000000000F5
:1015F00000000000000000000000000000000000EB
:1016000000000000000000000000000000000000DA
:101610000000000000000000000000008111220016
:101620007F0E2200AD102200DB0F2200D911220014
:10163000000000001C162200000000000000000056
:0400000500220001D4
:00000001FF
